:100000000C94D1050C94F9050C94F9050C94F905A0
:100010000C94F9050C94F9050C94F9050C94F90568
:100020000C94F9050C94F9050C9408180C947718A5
:100030000C94F9050C94F9050C94F9050C94F90548
:100040000C94F9050C94F9050C94F9050C94F90538
:100050000C94F9050C94F9050C94F9050C94A91A63
:100060000C94F9050C94F9050C94F9050C94F90518
:100070000C94F9050C94F9050C94F9050C94F90508
:100080000C94F9050C94F9050C94F9050C94F905F8
:100090000C94F31A0C94F9050C94F9050C94F905D9
:1000A0000C94F9050C94F9050C94F9050000000076
:1000B000003E5B4F5B3E3E6B4F6B3E1C3E7C3E1CEE
:1000C000183C7E3C181C577D571C1C5E7F5E1C0034
:1000D000183C1800FFE7C3E7FF0018241800FFE7EB
:1000E000DBE7FF30483A060E2629792926407F05AE
:1000F0000507407F05253F5A3CE73C5A7F3E1C1CC4
:1001000008081C1C3E7F14227F22145F5F005F5F83
:1001100006097F017F006689956A6060606060946F
:10012000A2FFA29408047E040810207E2010080874
:100130002A1C08081C2A08081E101010100C1E0C7F
:100140001E0C30383E3830060E3E0E060000000011
:100150000000005F00000007000700147F147F14F8
:10016000242A7F2A1223130864623649562050003D
:1001700008070300001C2241000041221C002A1C29
:100180007F1C2A08083E0808008070300008080814
:100190000808000060600020100804023E51494534
:1001A0003E00427F400072494949462141494D3352
:1001B0001814127F1027454545393C4A49493141B9
:1001C000211109073649494936464949291E000087
:1001D00014000000403400000008142241141414DC
:1001E0001414004122140802015909063E415D59C8
:1001F0004E7C1211127C7F494949363E41414122D1
:100200007F4141413E7F494949417F090909013EFA
:10021000414151737F0808087F00417F4100204021
:10022000413F017F081422417F404040407F021C33
:10023000027F7F0408107F3E4141413E7F0909094A
:10024000063E4151215E7F09192946264949493216
:1002500003017F01033F4040403F1F2040201F3FDC
:100260004038403F63140814630304780403615961
:10027000494D43007F4141410204081020004141A3
:10028000417F04020102044040404040000307084F
:100290000020545478407F2844443838444444284B
:1002A000384444287F385454541800087E090218F2
:1002B000A4A49C787F0804047800447D400020407A
:1002C000403D007F1028440000417F40007C0478BE
:1002D00004787C080404783844444438FC18242406
:1002E0001818242418FC7C08040408485454542486
:1002F00004043F44243C4040207C1C2040201C3C03
:100300004030403C44281028444C9090907C4464F9
:10031000544C44000836410000007700000041368C
:10032000080002010204023C2623263C1EA1A16112
:10033000123A4040207A3854545559215555794144
:100340002254547842215554784020545579400C19
:100350001E527212395555555939545454593955FC
:100360005454580000457C410002457D420001453F
:100370007C407D1211127DF0282528F07C545545D3
:10038000002054547C547C0A097F4932494949323F
:100390003A4444443A324A4848303A4141217A3A50
:1003A00042402078009DA0A07D3D4242423D3D401C
:1003B00040403D3C24FF2424487E4943662B2FFCCB
:1003C0002F2BFF0929F620C0887E09032054547979
:1003D000410000447D413048484A32384040227A4A
:1003E000007A0A0A727D0D19317D2629292F2826C7
:1003F0002929292630484D402038080808080808CF
:100400000808382F10C8ACBA2F102834FA00007B27
:10041000000008142A142222142A1408550055003A
:1004200055AA55AA55AAFF55FF55FF000000FF0029
:10043000101010FF00141414FF001010FF00FF1024
:1004400010F010F0141414FC001414F700FF000056
:10045000FF00FF1414F404FC141417101F10101FD5
:10046000101F1414141F00101010F0000000001FC3
:10047000101010101F10101010F010000000FF10CE
:100480001010101010101010FF10000000FF1400CA
:1004900000FF00FF00001F10170000FC04F41414FC
:1004A0001710171414F404F40000FF00F7141414C8
:1004B00014141414F700F7141414171410101F1048
:1004C0001F141414F4141010F010F000001F101F6B
:1004D0000000001F14000000FC140000F010F010D9
:1004E00010FF10FF141414FF141010101F00000050
:1004F00000F010FFFFFFFFFFF0F0F0F0F0FFFFFF54
:100500000000000000FFFF0F0F0F0F0F38444438AA
:1005100044FC4A4A4A347E02020606027E027E02F9
:1005200063554941633844443C04407E201E200604
:10053000027E020299A5E7A5991C2A492A1C4C7241
:1005400001724C304A4D4D303048784830BC625AC8
:10055000463D3E494949007E0101017E2A2A2A2A58
:100560002A44445F444440514A444040444A514034
:100570000000FF0103E080FF000008086B6B0836F5
:1005800012362436060F090F060000181800000066
:100590001010003040FF0101001F01011E00191D55
:1005A0001712003C3C3C3C00000000000001030727
:1005B0000F1F3F7F0080C0E0F0F8FCFE000000004D
:1005C0002300260029002C002F0000000002000953
:1005D0000F0000030401000C0000000000000000F8
:1005E000000000000000000000080B0002020200F2
:1005F00000090400000102020000052400100105AA
:1006000024010101042402060524060001070581D6
:100610000310004009040100020A0000000705025F
:100620000240000007058302400000040309041291
:10063000010002EF02014041233780000101020363
:100640000141726475696E6F204C4C4300417264C5
:1006500075696E6F204D6963726F000000000024A1
:100660000027002A002D003000DB40A4A62EAF207A
:1006700000A1C8D300408DAED580A80408020110A7
:1006800040804010204080408008020401804020CB
:1006900010020110801020404020000000002500C2
:1006A00028002B002E003100040404040403040578
:1006B00002020202040302020202060606060606FF
:1006C00004040202020404000060000000000000B4
:1006D0000000000000000000E0000000000000003A
:1006E00000000000000001E0000000000000000029
:1006F000000000000001F000000000000000000009
:100700000000000003F000000000000000000000F6
:1007100000000007F00000000000000000000000E2
:10072000000007F8000000000000000000000000CA
:10073000000FF800000003C0007E000001E0007F11
:100740000FF800000003C000FE000001E000FFEF12
:10075000F800000003C000FE000001E000FFFFF809
:1007600000000003C000F00000000F007FFE7FC00B
:10077000000003C000F00000000F003FFE7FF83FC4
:10078000F1FBCFFCFEF3BC3DEFE01FFE7FFF7FFBE4
:10079000FFDFFEFEFFBC3DEFE01FC6FFFF7FFBFF5C
:1007A000DFFEFEFFBC3DEFE00FE3C7FE787BC3DE5C
:1007B0001EF0FFBC3DEF0007FF87FC787BC3DE1E09
:1007C000F0F83C3DEF0001FFFFF0007BC3C01EF0DE
:1007D000F03C3DEF0001F37FE03FFBC3CFFEF0F0C4
:1007E0003C3DEF0003E33F807FFBC3DFFEF0F03CC6
:1007F0003DEF0007E73C00787BC3DE1EF0F03C3D98
:10080000EF0007FFBE00787BC3DE1EF0F03C3DEF3B
:100810000007FFFE00787BC3DE1EF0F03C3DEF00DA
:100820000FFFFE007FFBFFDFFEF0F03FFDEFE00F6C
:10083000FFFF007FFBFFDFFEF0F03FFDEFE00FF971
:10084000FF003E79F9CF9EF0F01F3DE7E01FF1FF7A
:100850000000000000000000000000001F80FF00FA
:100860007FFFFFFFFFFFFFFFFFFFE01C007F007F18
:10087000FFFFFFFEB46D888D18E000001F007FFFB2
:10088000FFFFFE95AD7DB577E000000F007FFFFF15
:10089000FFFEA5AD9D8D19E0000006007FFFFFFF64
:1008A000FEB5ADEDB57EE000000000000180000067
:1008B00000000000000000038000000000000000B5
:1008C000000007C000000000000000000007C0009A
:1008D00000000000000000000FC000000000000049
:1008E0000000001FE00000000000000000001FE00A
:1008F0000000000000000000003FE00000000000D9
:10090000000000003FF00000000000000000007F39
:10091000F0000000000000001FF87FF00000000061
:100920000000003FFE7FF0000000000000003FFFDD
:100930007FF0000000000000001FFFFBE00000004F
:10094000000000000FFFF9FFC00000000000000FD2
:10095000FFF9FFF800000000000007FFF1FFFF00B3
:10096000000000000003FC73FFFF80000000000097
:1009700001FE3FFFFF80000000000000FF1E0FFF90
:10098000000000000000007FFE1FFC0000000000CF
:1009900000003FFFFFF8000000000000000FDFFF35
:1009A000E0000000000000001F19FFC00000000070
:1009B0000000003F3CFF00000000000000007E7CC3
:1009C000F800000000000000007FFE7C0000000036
:1009D00000000000FFFFFC0000000000000000FF1E
:1009E000FFFE0000000000000000FFFFFE0000000E
:1009F0000000000001FFEFFE000000000000000109
:100A0000FFCFFE0000000000000003FF07FE000013
:100A1000000000000003FC07FE00000000000000D2
:100A200003F003FE00000000000000018000FE0053
:100A30000000000000000000007E00000000000038
:100A4000000000003E000000000000000000000C5C
:100A5000000000000000078000FC000003C0000050
:100A600000078001FC000003C0000000078001FCBB
:100A7000000003C0000000078001E00000001E002D
:100A80000000078001E00000001E007FE3F79FF9EF
:100A9000FDE7787BDFC0FFF7FFBFFDFDFF787BDF61
:100AA000C0FFF7FFBFFDFDFF787BDFC0F0F787BC1D
:100AB0003DE1FF787BDE00F0F787BC3DE1F0787B1D
:100AC000DE0000F787803DE1E0787BDE007FF7877E
:100AD0009FFDE1E0787BDE00FFF787BFFDE1E07876
:100AE0007BDE00F0F787BC3DE1E0787BDE00F0F7CD
:100AF00087BC3DE1E0787BDE00F0F787BC3DE1E0BC
:100B0000787BDE00FFF7FFBFFDE1E07FFBDFC0FF8A
:100B1000F7FFBFFDE1E07FFBDFC07CF3F39F3DE12A
:100B2000E03E7BCFC000000000000000000000009D
:100B3000FFFFFFFFFFFFFFFFFFFFC0FFFFFFFFFD06
:100B400068DB111A31C0FFFFFFFFFD2B5AFB6AEF74
:100B5000C0FFFFFFFFFD4B5B3B1A33C0FFFFFFFFF2
:100B6000FD6B5BDB6AFDC02200FF210005010980EF
:100B7000A1018505150026FF00190029FF950175C3
:100B8000088100C0050C0901A1018504150026FF9C
:100B90000319002AFF03950475108100C000451C4D
:100BA000632411241FBECFEFDAE0DEBFCDBF11E01A
:100BB000A0E0B1E0E0EBFBE402C005900D92A63CA2
:100BC000B107D9F723E0A6ECB1E001C01D92A83F20
:100BD000B207E1F715E0C0EDD5E004C02197FE01B2
:100BE0000E949424CF3CD107C9F70E94B01D0C94F9
:100BF000CB250C940000089596E0899FD001112424
:100C0000AB57BC4F90967C936E935F9791E0919613
:100C10009C939197E091F203F091F3039091F1038B
:100C2000992339F0309751F0811108C08091A103C8
:100C30000994309719F05C968C91FACF0895FC01D5
:100C40008091BC02882311F13FB7F89482E0809331
:100C5000E9002091F200822F90E01816190614F492
:100C600081E090E0882339F0289A44E64093BB0263
:100C70004091F1004083222339F02091F2002111AC
:100C800003C02BE62093E8003FBF08958FEF9FEF4E
:100C90000895089508954091A6025091A7022091C9
:100CA000A4023091A50242175307B4F49091E800D2
:100CB0009570E1F39091E80092FD19C08093F100E6
:100CC0008091A6029091A70201968F739927892B94
:100CD00019F48EEF8093E8008091A6029091A7020C
:100CE00001969093A7028093A60281E0089580E088
:100CF0000895DF92EF92FF920F931F93CF93DF93AC
:100D0000D82E8A01EB017B01E40EF51ECE15DF051E
:100D100059F0D7FE12C0FE0184910E944B06219625
:100D20008111F4CF0FEF1FEFC801DF91CF911F9119
:100D30000F91FF90EF90DF9008958881EECF2FB74D
:100D4000F89487708093E9009091E800892F807271
:100D500095FF04C09091F20080E4891B2FBF089595
:100D6000615030F02091F100FC0120830196F8CF12
:100D7000289A84E68093BB020895AF92BF92CF92E7
:100D8000DF92EF92FF920F931F93CF93DF936C014B
:100D90007B018B01040F151FEB015E01AE18BF082C
:100DA000C017D10759F06991D601ED91FC910190DE
:100DB000F081E02DC6010995892B79F7C501DF91F6
:100DC000CF911F910F91FF90EF90DF90CF90BF9048
:100DD000AF90089580919C0281110DC082E08093B4
:100DE000980284E08093990210929B0210929A02DA
:100DF00081E080939C0288E992E008950F931F930D
:100E0000CF93DF931F92CDB7DEB782E0898342E4B0
:100E100050E069EE75E080E80E9479060E94EA06DB
:100E2000DC0112960D911C910115110589F0D80174
:100E3000ED91FC910280F381E02DBE016F5F7F4F49
:100E4000C801099597FD04C0F80100851185ECCF14
:100E500089810F90DF91CF911F910F910895CF93CA
:100E6000DF931F92CDB7DEB76983DC01ED91FC9172
:100E70000280F381E02D41E050E0BE016F5F7F4FC3
:100E800009950F90DF91CF91089583E08093E90059
:100E90008091F200882319F08AE38093E800089596
:100EA00083E00E949F0690E00895CF93DF931F9206
:100EB000CDB7DEB7FC018485958597FD08C02FEF7F
:100EC0003FEF358724870F90DF91CF910895CE01B2
:100ED00001960E941F06019719F4898190E0F3CFD3
:100EE0008FEF9FEFF0CF0F931F93CF93DF931F925E
:100EF000CDB7DEB78C01FC018485958597FF0BC0CB
:100F0000CE0101960E941F06019771F4898190E03D
:100F1000F80195878487F801848595850F90DF9186
:100F2000CF911F910F9108958FEF9FEFF1CFFC01AB
:100F30008485958597FD0BC09FB7F89482E08093D8
:100F4000E9008091F2009FBF90E0019608959FB75D
:100F5000F89482E08093E9008091F2009FBF90E0D6
:100F6000089581508F3008F047C0E82FF0E0E55435
:100F7000F84F0C949424D807DC07CA07D007D4078D
:100F8000FC07FC07FC07DF07E507E907ED07F307A8
:100F9000FC07F707809180008F7780938000089589
:100FA000809180008F7DF9CF80918000877FF5CF81
:100FB00084B58F7784BD089584B58F7DFBCF8091F4
:100FC00090008F77809390000895809190008F7D9E
:100FD000F9CF80919000877FF5CF8091C0008F7707
:100FE0008093C00008958091C0008F7DF9CF8091DB
:100FF000C200877F8093C2000895CF93DF93282F8C
:1010000030E0F901E653FA4F8491F901E558F94FC0
:10101000D491F901E855F94FC491CC23A1F0811185
:101020000E94B107EC2FF0E0EE0FFF1FE454FA4FDF
:10103000A591B491EC91ED2381E090E009F480E07A
:10104000DF91CF91089580E090E0FACF862F0C9445
:10105000FD071F93CF93DF93282F30E0F901E6536C
:10106000FA4F8491F901E558F94FD491F901E85507
:10107000F94FC491CC23A9F0162F81110E94B1071A
:10108000EC2FF0E0EE0FFF1FE656F94FA591B4915B
:101090008FB7F894EC91111108C0D095DE23DC9342
:1010A0008FBFDF91CF911F910895DE2BF8CF862F50
:1010B000642F0C942908CF93DF9390E0FC01E5584E
:1010C000F94F24918855994FFC0184918823C9F0E8
:1010D00090E0880F991FFC01E55AF94FA591B49152
:1010E000FC01E656F94FC591D49161110DC09FB72F
:1010F000F8948C91209582238C93888128232883CF
:101100009FBFDF91CF910895623051F49FB7F8945B
:101110003C91822F809583238C93E8812E2BEFCFF7
:101120008FB7F894EC912E2B2C938FBFEACF862F9C
:10113000642F0C945B083FB7F894809194029091CF
:101140009502A0919602B091970226B5A89B05C082
:101150002F3F19F00196A11DB11D3FBFBA2FA92F36
:10116000982F8827BC01CD01620F711D811D911D33
:1011700042E0660F771F881F991F4A95D1F708959F
:101180008F929F92AF92BF92CF92DF92EF92FF9297
:101190004B015C010E949B086B017C010E949B0833
:1011A0006C197D098E099F09683E73408105910580
:1011B000A8F321E0821A9108A108B10888EEC80EB0
:1011C00083E0D81EE11CF11C81149104A104B10438
:1011D00029F7FF90EF90DF90CF90BF90AF909F9056
:1011E0008F9008958091D70081608093D70080EA26
:1011F0008093D80089B5806189BD89B5826089BD39
:1012000009B400FEFDCF61E070E080E090E00E9454
:10121000C0088091D8008F7C80618093D800809135
:10122000E000807F8093E00008957F928F929F92EC
:10123000AF92BF92CF92DF92EF92FF920F931F93E4
:10124000CF93DF93C82E8B017A018091BC0281116C
:1012500010C08FEF9FEFDF91CF911F910F91FF9003
:10126000EF90DF90CF90BF90AF909F908F907F9046
:1012700008958091B20280FF05C08091E0008260F5
:101280008093E000CE2DDF2DD12C8AEFB82E8C2D4F
:101290008770982E8C2D8072882E8C2D8074782EDD
:1012A0009AE3A92E209719F4DD2009F452C08C2D61
:1012B0000E949F0681110AC0BA94BB2051F261E0DE
:1012C00070E080E090E00E94C008ECCF8C171D0613
:1012D00011F00CF08C2F9FB7F8949092E9002091B8
:1012E000E80025FD02C09FBFDDCF282F30E0C21BE4
:1012F000D30B882029F08150A0F01092F100FBCF91
:10130000F801C7FC0AC0815050F041914093F100B0
:10131000FACF44914093F10031968150D0F7020FFB
:10132000131FDD2021F0A092E800D12CDCCF8091AA
:10133000E80085FD07C0A092E800DD24D394209743
:1013400091F2F3CF209779F6772069F2A092E80026
:10135000CACF5D9A84E68093A902C7017CCFCF9360
:10136000DF93EC0180911201882331F083E00E9429
:1013700015091816190634F081E090E09B838A83E2
:1013800080E090E0DF91CF9108952FB7F8946091BD
:1013900090027091910280919202909193022FBFDE
:1013A00008950F931F93CF93DF93C82FD62F86E016
:1013B000C89FF0011124EB57FC4F11A2878D90A11B
:1013C00081309105F1F058F082309105F1F10397E9
:1013D00009F440C0DF91CF911F910F9108956623CA
:1013E000C9F361E070E08C2F0E94FC050E94C509E2
:1013F0006093DD037093DE038093DF039093E0033B
:10140000E9CF0E94C5090091DD031091DE03209110
:10141000DF033091E003AB01BC01401B510B620BB9
:10142000730B8091EF039091F003B0E0A0E084177C
:101430009507A607B70748F462E070E08C2FDF91AC
:10144000CF911F910F910C94FC0563E070E0D111D6
:10145000C1CFF4CF70E060E0F1CFEF92FF920F9335
:101460001F93CF93DF93EC01EC80FD806E157F0519
:101470000CF070C057FF04C0240F351F50E040E04F
:101480008E819F81FA01E20FF31F8E179F071CF4D4
:101490009C01241B350B121613060CF05BC0922F17
:1014A000842F8695869586958E9DD0018F9DB00D53
:1014B00011246A0F7B1FAF8DB8A1A60FB71F47700D
:1014C00049F188E0841B482F682F70E0FB01EC5441
:1014D000FA4FE491281708F063C0621B71092FEFDF
:1014E00030E002C0359527956A95E2F7E223013096
:1014F000110539F0B0F10230110561F58C91E82742
:1015000002C08C91E82BEC93941720F12C813D8143
:10151000A20FB31FE92FE41BE83078F00230110569
:1015200021F58E2F9C9190959C932C813D81A20F4B
:10153000B31F88508830B0F7E770EE2359F0F0E021
:10154000E455FA4FE49101301105F9F010F1023041
:10155000110519F1DF91CF911F910F91FF90EF903D
:101560000895E0958C91E823CECF81E00115110517
:1015700009F480E081959E2F8C932C813D81A20FF0
:10158000B31F98509830C0F7D7CF8C91E82BEC93CD
:10159000E1CFE0958C91E823FACF8C91E827F7CF43
:1015A0000130110509F4ADCFE0F20230110509F464
:1015B000A5CFAE0DBF1DAECF0F931F93CF93DF937B
:1015C00077FF04C0260F371F70E060E0DC0114963F
:1015D000CD91DC91FB01E20FF31FCE17DF071CF466
:1015E0009E01261B370B121613064CF5FA0157FD08
:1015F0003796A3E0F595E795AA95E1F7EC9FD00122
:10160000ED9FB00DFC9FB00D11246A0F7B1FDC0114
:101610005F96ED91FC91E60FF71F4770552781E02B
:1016200090E001C0880F4A95EAF7482F0130110574
:1016300059F0A8F02E0F3F1F02301105E1F0DF91A5
:10164000CF911F910F9108952E0F3F1FE217F307BF
:10165000B1F38191DF011197842B8C93F7CF8095A3
:101660002E0F3F1FE217F30751F39191DF011197FE
:1016700098239C93F7CFE217F30709F38191DF01D9
:10168000119784278C93F7CF0F931F93FA01DC01F6
:1016900056964C9156974230E9F04330A1F14130D3
:1016A00061F514964D915C91DA01AE1BBF0BFD0103
:1016B000E21BF30B77FD0BC0DC0116964D915C919C
:1016C0006417750724F4AB01BF010E94DC0A1F9167
:1016D0000F91089514964D915C91DA01A61BB70BFA
:1016E000BD0161507109DC0116964D915C91DA01E2
:1016F000AE1BBF0BFD01E21BF30B77FDE8CFAF0183
:101700000E942D0AE4CF16964D915C91DA01A61B3A
:10171000B70BBD0161507109CDCF0F931F93FA0133
:10172000DC0156964C9156974230A9F0433091F126
:10173000413019F514964D915C91DA01AE1BBF0B47
:10174000FD013197F7FD04C0AB01BF010E942D0AD6
:101750001F910F91089514964D915C91DA01A61B8B
:10176000B70BBD01DC0116964D915C91DA01AE1B01
:10177000BF0BFD013197621B730BF7FDE9CFDC0155
:1017800016964D915C91E417F50714F7AF010E948E
:10179000DC0ADECF16964D915C91DA01A61BB70BE1
:1017A000BD01621B730BCECFFC0177FD64C0808549
:1017B0009185681779070CF05EC057FD5CC0828583
:1017C0009385481759070CF056C086898230B1F0CE
:1017D000833029F1813041F484819581841B950BFC
:1017E000AB01BC01615071092130310509F108F4E8
:1017F00043C02230310509F463C008958481958186
:10180000DC01A61BB70BBD01615071098681978170
:10181000DC01A41BB50BAD0141505109E5CF868118
:101820009781861B970BBA01AC0141505109DCCF5F
:10183000CA0157FD0796A3E095958795AA95E1F70C
:10184000A481B5818A9F90018B9F300D9A9F300DA6
:101850001124620F731F078CF0A1E02DE60FF71F14
:101860004770552721E030E001C0220F4A95EAF782
:101870008081822B80830895CA0157FD079633E04B
:10188000959587953A95E1F7A481B5818A9F900156
:101890008B9F300D9A9F300D1124620F731F078CA0
:1018A000F0A1E02DE60FF71F4770552781E090E08B
:1018B00001C0880F4A95EAF7809590818923DACF95
:1018C000CA0157FD079623E0959587952A95E1F77C
:1018D000A481B5818A9F90018B9F300D9A9F300D16
:1018E0001124620F731F078CF0A1E02DE60FF71F84
:1018F0004770552721E030E001C0220F4A95EAF7F2
:1019000080818227B7CF08958EBD00000DB407FEF9
:10191000FDCF8EB508958CBD9DBD08950895FC0141
:101920006370668B8481958126813781613039F0BF
:10193000633029F091878087338722870895318724
:1019400020879387828708952F923F924F925F92CC
:101950006F927F928F929F92AF92BF92CF92DF92BF
:10196000EF92FF920F931F93CF93DF93CDB7DEB724
:101970006A970FB6F894DEBF0FBECDBF9A8F898FDE
:101980007A8369834A01D22E18870F833701BC2CD2
:10199000DC0159962D913C915A972115310509F09A
:1019A00015C118968D919C911997681779070CF0BD
:1019B000D7C11A968D919C91481759070CF0D0C148
:1019C0004C2C512CB6E0CB9E600D711D11247C87F0
:1019D0006B87161617060CF0C3C1EA2DF0E0FA87E4
:1019E000E98793E0EE0FFF1F9A95E1F7F88BEF87F9
:1019F000CF01840F951F181619060CF0B1C1A98DDF
:101A0000BA8D58968C91811104C0BFEABD1508F4B7
:101A1000D394A98DBA8DED91FC9111970284F38531
:101A2000E02DCD010995B5E0DB9EC0011124E981CF
:101A3000FA81FC83EB83312C212C9C0124553F4FF0
:101A4000388F2F8B4A2D50E05E8B4D8BEF89F88DB0
:101A5000E20DF31D44919E828D82D12CC12C6981AF
:101A60007A81620D731D7A8B698B842F90E09C8B39
:101A70008B8BE98DFA8DA081B18140FF82C0F1E0AE
:101A8000BF126FC0AF126DC01C96ED91FC912F81FB
:101A90003885A4014C0D5D1D69897A89898D9A8DDF
:101AA0000995EB89FC89F595E7954E2F5FEFC51AEF
:101AB000D50A6D817E818D899E89680F791F7E830D
:101AC0006D8398E0C916D10481F6AFEF2A1A3A0A5D
:101AD000EB81FC81E40DF51DFC83EB83F5E02F1613
:101AE000310409F0B3CF2F81388526153705B9F0B9
:101AF000A98DBA8DED91FC91B1E0BB1257C0AB122C
:101B000055C069817A816B5F7F4F0088F189E02D34
:101B1000830128E030E0A401898D9A8D0995A98D73
:101B2000BA8DED91FC9111970688F789E02DCD01D2
:101B30006A960FB6F894DEBF0FBECDBFDF91CF918E
:101B40001F910F91FF90EF90DF90CF90BF90AF90DB
:101B50009F908F907F906F905F904F903F902F90CD
:101B600009941E96ED91FC91EF80F88409851A8501
:101B700092014D815E816B817C81898D9A8D099561
:101B800090CF2F8138852615370509F48ACF31E0AB
:101B9000B31207C0A31205C01C96ED91FC919301EE
:101BA00078CF1E96ED91FC917301E0CF6B857C851B
:101BB000641975090684F785E02D73010F8518896E
:101BC0009201A401898D9A8D0995A9CFF9013496C6
:101BD0009491329745915491D91AB7E0DB9E400D0C
:101BE000511D1124F901259134913C8B2B8BFA0165
:101BF00025903490FA013296749031963491398B55
:101C0000329664903196449041E04C1518F04A1594
:101C100008F07FC0662D062C000C770B7C836B834D
:101C2000842D042C000C990B9E838D83A98DBA8D75
:101C3000ED91FC9111970284F385E02DCD0109957A
:101C4000512CD12CC12CEA2DF0E0FA87E9872B2DFD
:101C500030E03C872B87A401440D511D47FC5A9569
:101C6000588F4F8B69817A81660D711D67FC7A955B
:101C70007E876D877989C71608F051CF2C2D30E00B
:101C80004D815E81420F531FA985BA854A9FC001CD
:101C90004B9F900D5A9F900D1124FC01E80DF91DEA
:101CA000F88BEF87852D612C4F89588D420F531F7C
:101CB0005E8B4D8B671408F050C044244394480E4B
:101CC000877041F4C1010196EB89FC89E20DF31D97
:101CD000D4901C01D7FE19C0A98DBA8DED91FC914D
:101CE000662D70E0B1E0BB1219C0AB1217C02D8594
:101CF0003E85620F731F0484F585E02D2F813885A2
:101D00004D895E89898D9A8D0995DD0C6394842DAA
:101D1000D1CF1E821D821C821B8288CF4B815C81A9
:101D2000640F751FAB85BC856A9FC0016B9F900DCA
:101D30007A9F900D112469817A81680F791F06843A
:101D4000F785E02DEF80F88409851A859D014F8580
:101D50005889898D9A8D0995D8CF570CC3948ACF0D
:101D60006A960FB6F894DEBF0FBECDBFDF91CF915C
:101D70001F910F91FF90EF90DF90CF90BF90AF90A9
:101D80009F908F907F906F905F904F903F902F909B
:101D900008958F929F92AF92CF92EF92FF920F93FE
:101DA0001F93CF93DF93EC01262F898D9A8D009797
:101DB00009F051C06A30D1F41D861C868D8948E037
:101DC000849F900111248E859F85820F931F9F878A
:101DD0008E8781E090E0DF91CF911F910F91FF906E
:101DE000EF90CF90AF909F908F9008956D3089F3D2
:101DF000CC88AD888F898823C1F08C859D8536E09D
:101E0000C39E800D911D1124488559854817590797
:101E100064F44E855F851D861C8638E0A39EC00154
:101E20001124840F951F9F878E87EA88FB88088975
:101E300019894E855F856C857D85CE010E94A40C35
:101E40002C898C859D8546E0249F800D911D112451
:101E50009D878C87BECF6A3069F41D861C86FC0185
:101E60003896E4912D898E859F85E29F800D911D86
:101E70001124ADCF6D3009F4ACCFFC013496349110
:101E8000631708F4A6CF3296E491E61708F4A1CFC1
:101E9000FC01329685909490462F431B342F47E0E7
:101EA000349F800C911C1124F401329634913196A8
:101EB000E4913323A9F1EE2399F1CC88F40135960E
:101EC000E491AD884F89442301F10E2E000CFF0BE5
:101ED000E30FF11DCE9EA001CF9E500D11246C8505
:101EE0007D85460F571F68857985641775076CF4E3
:101EF0004E855F851D861C86FC013896E491AE9E5A
:101F0000400D511D11245F874E87EA88FB880889A0
:101F100019894E855F856C857D85CE010E94A40C54
:101F2000F4013496E4912C898C859D85E29F800D87
:101F3000911D11248DCF6F927F928F929F92AF92BD
:101F4000BF92CF92DF92EF92FF920F931F93CF93A6
:101F5000DF93EC016B015A0139014801E881F981F5
:101F60000284F385E02D0995E881F9810288F389DF
:101F7000E02D87019301A501B601CE010995A501C8
:101F8000480D591D41505109E881F9810288F389B2
:101F9000E02D9301B601CE010995E881F981008811
:101FA000F189E02D9401A501B601CE010995C60C79
:101FB000D71CB60161507109E881F9810088F18967
:101FC000E02D9401A501CE010995E881F9810688EB
:101FD000F789E02DCE01DF91CF911F910F91FF90F6
:101FE000EF90DF90CF90BF90AF909F908F907F90B9
:101FF0006F9009946F927F928F929F92AF92BF924F
:10200000CF92DF92EF92FF920F931F93CF93DF93C4
:102010005C01EB016A01490138018701DC01ED91A6
:10202000FC916217730719F5641675062CF0962D4E
:10203000872D3A01C92ED82E9601261937092F5F10
:102040003F4F048CF58DE02DA301BE01C50109951C
:10205000DF91CF911F910F91FF90EF90DF90CF9084
:10206000BF90AF909F908F907F906F90089546158E
:10207000570591F42617370724F0892D4B01C22FFD
:10208000D82F9E01281939092F5F3F4F068CF78DF5
:10209000E02DA601B401DACF0284F385E02D099585
:1020A000D501ED91FC910488F589E02D830194011F
:1020B000A601BE01C5010995D501ED91FC910688E7
:1020C000F789E02DC501DF91CF911F910F91FF900E
:1020D000EF90DF90CF90BF90AF909F908F907F90C8
:1020E0006F900994EF92FF920F931F93DC011A9661
:1020F0000D911C911B9718962D913C911997ED917C
:10210000FC9100A0F1A1E02D7B0150E040E070E0E7
:1021100060E009951F910F91FF90EF9008954F9205
:102120005F926F927F928F929F92AF92BF92CF9267
:10213000DF92EF92FF920F931F93CF93DF936C0187
:102140002B015A0139014801DC01ED91FC91028417
:10215000F385E02D0995E201640C751CD601ED9123
:10216000FC91C615D7055CF40088F189E02D870144
:102170009401A501BE01C60109952196EFCF0688FD
:10218000F789E02DC601DF91CF911F910F91FF904C
:10219000EF90DF90CF90BF90AF909F908F907F9007
:1021A0006F905F904F9009948F929F92AF92BF92E1
:1021B000CF92DF92EF92FF920F931F93CF93DF9313
:1021C000EC015B014A016901E881F9810284F38530
:1021D000E02D099595012C0D3D1D21503109E88117
:1021E000F9810488F589E02D78018401A401B50105
:1021F000CE010995E881F9810688F789E02DCE01A5
:10220000DF91CF911F910F91FF90EF90DF90CF90D2
:10221000BF90AF909F908F9009948F929F92AF92B2
:10222000BF92CF92DF92EF92FF920F931F93CF93C3
:10223000DF93EC015B014A0169017801E881F981D2
:102240000284F385E02D0995C80CD91C8601015044
:102250001109E881F9810488F589E02D9501A4012F
:10226000B501CE010995E881F9810688F789E02D4D
:10227000CE01DF91CF911F910F91FF90EF90DF90F2
:10228000CF90BF90AF909F908F900994EF92FF9264
:102290000F931F93DC01ED91FC9100A0F1A1E02DC3
:1022A00009951F910F91FF90EF9008950F931F9341
:1022B000DC01ED91FC91068CF78DE02D09951F91C5
:1022C0000F9108950F931F93DC01ED91FC91048C05
:1022D000F58DE02D09951F910F910895DC01ED9189
:1022E000FC910084F185E02D09943F924F925F921A
:1022F0006F927F928F929F92AF92BF92CF92DF9216
:10230000EF92FF920F931F93CF93DF935C017B01BA
:102310004A016901390187E0680E711C93E07594E8
:1023200067949A95E1F72B01400E511E10E000E0F2
:10233000312CD0E0C0E0CE0187709927330C892B77
:1023400059F4FE0183E0F595E7958A95E1F7E00FF2
:10235000F11FE80DF91D349037FE0AC021E030E08E
:10236000A701B5016C0F7D1F85E493E00E946E11FB
:102370002196CC16DD06F9F68FEFE81AF80A060D5D
:10238000171DE414F504A9F6DF91CF911F910F9169
:10239000FF90EF90DF90CF90BF90AF909F908F9085
:1023A0007F906F905F904F903F9008952F923F9253
:1023B0004F925F926F927F928F929F92AF92BF9255
:1023C000CF92DF92EF92FF920F931F93CF93DF9301
:1023D00000D000D000D0CDB7DEB73C016A013E830B
:1023E0002D83FC82EB825801A41AB50AB7FE03C004
:1023F000B194A194B1088D809E80861A970A97FEA9
:1024000003C09194819491088A149B045CF0902FEE
:10241000812F0D811E819D838E839C2D8D2D6B01BF
:10242000692F782F0C151D055CF09D818E817E83B0
:102430006D83692F782F902F812F8601C92ED82E7A
:102440001601201A310A2B012D813E81421A530AAE
:1024500057FE03C0519441945108710137FE03C0E7
:102460003FEFE31AF30AF594E7948D819E81861776
:1024700097075CF5A1E0B0E0BA83A983C016D10646
:102480004CF1D301ED91FC910484F585E02D2B8175
:102490003C81A8016D817E818A149B041CF04D81D2
:1024A0005E81B801C3010995E418F508F7FE0AC07A
:1024B0002D813E8189819A81280F391F3E832D838A
:1024C000E20CF31C0F5F1F4FD9CF2FEF3FEF3A8382
:1024D0002983D4CF26960FB6F894DEBF0FBECDBFAA
:1024E000DF91CF911F910F91FF90EF90DF90CF90F0
:1024F000BF90AF909F908F907F906F905F904F9024
:102500003F902F900895089520914502260F33277C
:10251000331F21323105ECF420916902FC0190E077
:1025200080E0243069F082E00895A0914502219175
:10253000AC014B5D5D4FA40FB52FB11D2C930196DF
:10254000861798F380914502680F6093450280E0FA
:10255000089581E008951092690281E080936B02F2
:1025600010926A0261E082E00E94290861E083E043
:102570000E942908E9EBF0E080818E7F80838081D2
:102580008D7F808388E48093B80085E48093BC00CD
:102590000895CF93DF9391E0909324028823B9F0BC
:1025A000C091B800D091BA008091BC008A7B809322
:1025B000BC0060E082E00E94290860E083E00E94A5
:1025C00029080E94AB12D093BA00C093B800DF91E3
:1025D000CF910895E091B0028091AF02E81730F4F6
:1025E000F0E0E150FE4F808190E008958FEF9FEF83
:1025F00008959091B0028091AF022FEF3FEF9817AE
:1026000048F4E92FF0E0E150FE4F208130E09F5F79
:102610009093B002C90108958091AF029091B002E9
:10262000891B990B0895CF92DF92EF92FF920F933F
:102630001F93CF93DF937C01CB018A012091C002CD
:10264000222389F0EB016B01C40ED51ECC15DD05EC
:1026500069F06991D701ED91FC910190F081E02D35
:10266000C7010995F3CF642F0E948412C801DF913E
:10267000CF911F910F91FF90EF90DF90CF90089531
:10268000CF93DF931F92CDB7DEB769832091C0024D
:102690002223F9F02091BD02203258F021E030E0F1
:1026A000FC013383228390E080E00F90DF91CF9193
:1026B00008958091BE02E82FF0E0E152FE4F99812B
:1026C00090838F5F8093BE028093BD0281E090E093
:1026D000ECCF61E0CE0101960E948412F7CFCF9239
:1026E000DF92EF92FF920F931F93CF93DF93D091DE
:1026F000BD0281E0D13208F09CC0C091BF020E94AF
:102700009B086B017C018091690281116CC082E0A1
:102710008093690281E080936B028FEF809368025F
:1027200010928D02D0938C02AFEDB1E0ECE6F2E0B6
:1027300080E0D8138DC010928E0280918E02CC0F53
:10274000C82BC0938E0280916A02813009F084C048
:1027500010926A020E949B086B017C0180918E029C
:102760008093BB008091200290912102A0912202CF
:10277000B0912302892B8A2B8B2BA1F00E949B08FE
:102780000091200210912102209122023091230217
:102790006C197D098E099F09061717072807390745
:1027A00008F442C08091BC0083FDD8CF85EC8093B3
:1027B000BC000E949B086B017C0180916902823001
:1027C00009F44CC0809168028F3F09F469C0809180
:1027D0006802803209F466C080916802803309F48F
:1027E00063C084E026C08091200290912102A091D4
:1027F0002202B0912302892B8A2B8B2B09F483CFE1
:102800000E949B0800912002109121022091220237
:10281000309123026C197D098E099F09061717074D
:102820002807390708F06FCF80911F020E94C91254
:1028300085E01092BE021092BD021092C002DF919C
:10284000CF911F910F91FF90EF90DF90CF9008955F
:102850009D9191938F5F6DCF85EEA9CF80912002DE
:1028600090912102A0912202B0912302892B8A2B00
:102870008B2B09F4A2CF0E949B080091200210919B
:10288000210220912202309123026C197D098E09C8
:102890009F09061717072807390708F08ECFC4CFFE
:1028A00080E0C7CF82E0C5CF83E0C3CFEF92FF9235
:1028B0000F931F93CF93DF937C01C62F8091620308
:1028C00090916303009709F459C02091660331E0A9
:1028D0003093C0022093BF021092BE021092BD023C
:1028E000DC01ED91FC910190F081E02D60E0099513
:1028F0008701EE24E394F12CD1E0C1508091620372
:1029000090916303CF3F91F1B0E2EB16F104D8F060
:102910000E946F138091620390916303209166037C
:10292000D093C0022093BF021092BE021092BD024B
:10293000DC01ED91FC910190F081E02D60E00995C2
:10294000EE24E394F12C8091620390916303F801EB
:102950006491DC01ED91FC910190F081E02D0995ED
:10296000BFEFEB1AFB0A0F5F1F4FC7CFDF91CF916D
:102970001F910F91FF90EF900C946F13E0917203F1
:10298000F0917303908180917803809589238083EF
:102990008701C15008F438C0F80184912091600388
:1029A00030916103232B29F00E94840C0F5F1F4F8D
:1029B000F0CF28E030E040E8E0916E03F0916F0343
:1029C00090917603582F5423D9F05081952B908302
:1029D000E0917003F0917103908150917703952BF2
:1029E0009083E0917003F09171035081909177038F
:1029F000909595239083469521503109E9F6D6CFDD
:102A0000508190959523E3CFDF91CF911F910F9146
:102A1000FF90EF9008951F93CF93DF93EC018D8D7E
:102A20009E8D009721F1162F29A131E03093C0022D
:102A30002093BF021092BE021092BD02DC01ED9104
:102A4000FC910190F081E02D60E009958D8D9E8DC7
:102A5000DC01ED91FC910190F081E02D612F099551
:102A60008D8D9E8DDF91CF911F910C946F13ADA52D
:102A7000BEA59C918BA9809589238C938B8D9C8D71
:102A8000892B31F0862FDF91CF911F910C94840C0C
:102A900028E030E080E8A9A5BAA599A9462F4823E7
:102AA000C1F04C91942B9C93ABA5BCA59C914AA9D9
:102AB000942B9C93ABA5BCA54C919AA9909594237B
:102AC0009C9386952150310931F7DF91CF911F9169
:102AD00008954C9190959423E6CF1F93CF93DF9365
:102AE000EC01162F8D8D9E8D892BB1F12DA93EA95C
:102AF0004FA958AD60E074E284EF90E00E94722428
:102B00002051310941095109569547953795279527
:102B10002093B80066EA111167EACE010E940B15F6
:102B20008D8D9E8D892B41F129AD3AAD4BAD5CADBC
:102B300060E074E284EF90E00E9472242051310939
:102B40004109510956954795379527952093B80027
:102B5000DF91CF911F9108958B8D9C8D892B21F052
:102B60008EAD9FAD0E948B0CEFA5F8A990818CA92A
:102B7000809589238083CECFEFA5F8A980819CA979
:102B8000892B8083E5CF90E080E00895DC01FB0194
:102B900012962C911297848195812817190641F479
:102BA00091818081813A31F49D7F81E0913009F0FB
:102BB00080E008958132E1F79B3029F482811F96ED
:102BC0008C9381E008959A3099F7828150968C9386
:102BD000F8CFAF92BF92CF92DF92EF92FF920F9316
:102BE0001F93CF93DF931F92CDB7DEB77C0169832C
:102BF0006A01590141E050E0BE016F5F7F4FFC0167
:102C000083810E9415098C0197FD0BC0F701838118
:102C1000A501B60180640E941509080F191F97FDD0
:102C20008C01C8010F90DF91CF911F910F91FF9000
:102C3000EF90DF90CF90BF90AF900895DC01FB0143
:102C400088E4808389E4818384E482831D969C9157
:102C50001D979F709F5B93831D968D919C9124E09F
:102C6000969587952A95E1F78F708F5B848385E031
:102C70000895EF92FF920F931F93CF93DF93FB0181
:102C80002081213871F52381223259F5DC01129619
:102C90004C91248135814217130619F5EC010B85FF
:102CA0001C85F12CE12C0115110589F0F8014481F6
:102CB00055816281738180E80E9479068F3F980771
:102CC00049F0E80EF91ED8010D911C91ECCF81E07E
:102CD0008F87C701DF91CF911F910F91FF90EF90E8
:102CE000089590E080E0F6CFCF93DF93CDB7DEB7C5
:102CF00069970FB6F894DEBF0FBECDBFFC01DB01B4
:102D00008C918F5F8C939E012D5F3F4F8DE0D90199
:102D10001D928A95E9F729E0298384E08A8391E06E
:102D20009D8383E08E832A8721E22B879C879D8762
:102D30009F8722E2288B27E02B8B25E02C8B8E8B24
:102D400020E430E0388F2F8B998F82818B8395859B
:102D50008685998B8A8B838180688D8B49E150E0D1
:102D6000BE016F5F7F4F80E00E94790669960FB6C3
:102D7000F894DEBF0FBECDBFDF91CF910895CF9302
:102D8000DF938091D701811167C081E08093CA01F0
:102D90008093CB0120ED31E03093CD012093CC0125
:102DA0001092CF011092CE0122E331E03093C7019F
:102DB0002093C6011092D2011092D1011092D40139
:102DC0001092D3018093D5018093D60181EC80933A
:102DD000D0010E94EA06FC0181819091CA01482F2E
:102DE000490F5527551F483051059CF5A281B381E5
:102DF000109709F526EC31E033832283208120935C
:102E0000C8018093C9018091CB01820F80832091FA
:102E1000CC01A22FB091CD018A2F821B8917C8F453
:102E200081813D91C82FD0E0C050DF4F38838F5F44
:102E30008183F2CFD90118962D913C9119972115D4
:102E40003105C1F726EC31E019963C932E93189783
:102E5000D5CF81E08093D70186EC91E0DF91CF91CF
:102E600008950F931F93CF93DF93EB018A010E9484
:102E7000BF169801AE0165E0DF91CF911F910F91D0
:102E80000C94E9150F931F93CF93DF93EB018A0105
:102E90000E94BF169801AE0164E0DF91CF911F91AF
:102EA0000F910C94E915CF93DF93EC01E1E3F3E08C
:102EB00090E080E0219131910196232B41F5880F1C
:102EC000991FFC01E15DFC4FD183C08348E050E0D5
:102ED00061E373E08FE293E00E944217EFE2F3E0D8
:102EE00087E393E022813381C217D30711F4138261
:102EF000128232968E179F07A9F748E050E061E3EF
:102F000073E08FE293E0DF91CF910C94421784300D
:102F1000910581F6DBCF20914B0330914C03C90121
:102F2000079697FD079623E0959587952A95E1F7F3
:102F30002091490330914A03829FA001839F500D45
:102F4000929F500D112470E060E080916403909195
:102F500065030C94C4250E94BF25FB01019000204D
:102F6000E9F73197AF01461B570BDC01ED91FC915E
:102F70000280F381E02D09940F931F93CF93DF9389
:102F8000EC010E94AD178C0160EA71E0CE010E9455
:102F9000AD17800F911FDF91CF911F910F91089571
:102FA00085ED8093BC008091200290912102A09138
:102FB0002202B09123020796A11DB11D23E0B69510
:102FC000A795979587952A95D1F72091BC0024FD68
:102FD00003C010926902089540912002509121028D
:102FE0006091220270912302452B462B472B69F3F7
:102FF0000097A105B10541F025E32A95F1F70000FE
:103000000197A109B109E1CF80911F020C94C91267
:103010001F920F920FB60F9211248F939F9380915E
:10302000E1009091E100937F9093E10083FF0FC056
:103030001092E90091E09093EB001092EC0092E383
:103040009093ED001092BC0298E09093F00082FF04
:1030500022C093E09093E9009091F200992319F037
:103060009AE39093E8009091A902992341F09091FE
:10307000A90291509093A902911101C05D9890917D
:10308000BB02992341F09091BB0291509093BB02F7
:10309000911101C0289884FF18C08091E2008E7EB3
:1030A00081608093E2008091E1008F7E8093E10057
:1030B0008091B2028E7E80618093B2029F918F9147
:1030C0000F900FBE0F901F90189580FFF7CF809143
:1030D000E2008E7E80618093E2008091E1008E7E2E
:1030E0008093E1008091B2028E7E8160E5CF1F92D5
:1030F0000F920FB60F921124CF92DF92EF92FF92B0
:103100000F931F932F933F934F935F936F937F93EF
:103110008F939F93AF93BF93EF93FF93CF93DF93DF
:10312000CDB7DEB76C97DEBFCDBF1092E9008091BE
:10313000E80083FF25C068E0CE0145960E94B006F6
:1031400082EF8093E8008D8987FF39C09091E80075
:1031500090FFFCCF982F907609F034C19E894F895B
:10316000588D2F89F88C911131C0803861F580918C
:10317000B1028093F1001092F1008EEF8093E8008D
:103180006C960FB6F894DEBF0FBECDBFDF91CF9126
:10319000FF91EF91BF91AF919F918F917F916F912F
:1031A0005F914F913F912F911F910F91FF90EF9061
:1031B000DF90CF900F900FBE0F901F9018959EEF4D
:1031C0009093E800C7CF1092F100D5CF913059F419
:1031D0008111D3CF4130510581F68091B1028D7FAD
:1031E0008093B102CACF933049F48111C6CF4130E8
:1031F000510519F68091B1028260F2CF953041F409
:103200008091E80080FFFCCF20682093E300B5CFD9
:10321000963009F0A9C00B8D1C8D22E01092E900B8
:103220001092A7021092A602F2122EC01092A502CE
:103230001092A4020E94FE061F8299E09983FA82EE
:1032400091E09E8390EA98879AEF99872091A60251
:103250003091A702275F3F4F3C832B838D831092D1
:10326000E9001092A7021092A6021093A502009303
:10327000A40249E050E0BE016F5F7F4F80E00E94F2
:1032800079060E94FE0679CF1093A5020093A4024E
:103290000E94EA06DC0112960D911C9101151105A0
:1032A00009F451C1D801ED91FC910480F581E02D24
:1032B000BE016B5E7F4FC8010995009709F03EC1C2
:1032C000F80100851185EACFF3E0FF120EC08F8967
:1032D000882309F440C0823061F440E86DE08DE459
:1032E00096E00E94121C811148CF81E28093EB008E
:1032F00047CF813029F440E86BE081E496E0F1CFDC
:10330000833099F70E94EA06DC011296ED90FC905A
:103310008E010F5F1F4F6801E114F10479F0D701AE
:10332000ED91FC910680F781E02DB801C701099568
:10333000080F111DF701E084F184EECFD8011C9233
:10334000F60101900020E9F73197BF016C197D0962
:1033500040E0C601C6CF6BE276E0FB01449150E04D
:1033600080E80E94790609CF973009F4BECF9830E3
:1033700021F481E08093F10000CF993009F0FDCE77
:10338000837009F0B2CFE1E0F1E081E031E096E353
:103390002191222371F08093E9003093EB00DF014B
:1033A00011972C912093EC009093ED008F5F873064
:1033B00079F78EE78093EA001092EA008F89809374
:1033C000BC02DBCE8B8D9C8D1092E9001092A7027F
:1033D0001092A6029093A5028093A402898D811178
:1033E00092C08E899D89913A49F4813209F07DCF4E
:1033F00047E050E06BE071E080E0B3CF913209F03C
:1034000074CF833269F48F89988DB0E0A0E0809307
:10341000070190930801A0930901B0930A01ADCE72
:10342000803269F48091E80082FFFCCF67E08BE096
:1034300091E00E94B0068BEF8093E8009ECE82322E
:1034400009F09BCE8F8980931201EEEFFFE7859103
:1034500094918B3F9C4D51F1E0E0F8E080910B019D
:1034600090910C01A0910D01B0910E01803B944010
:10347000A105B105F1F48091120180FD1AC0EE3F63
:103480008AE0F80789F587E797E791838083809141
:1034900060008093A80288E19BE00FB6F894A8959D
:1034A000809360000FBE9093600067CEEEEFFAE06D
:1034B000D5CF808191818737974709F05ECEA89557
:1034C000809160008861809360008091A802809361
:1034D0006000EE3F2AE0F20789F08091FE0A9091A9
:1034E000FF0A9183808349CE808191818737980735
:1034F00051F29093FF0A8093FE0AC5CF1092FF0A03
:103500001092FE0A3ACE0E94EA06DC0112960D9154
:103510001C910115110509F4E8CED801ED91FC913B
:103520000190F081E02DBE016B5E7F4FC8010995CF
:10353000811123CEF80100851185EBCF18161906ED
:103540000CF41BCED2CEF1E0FF12BECE6FE276E0DD
:1035500004CF1F920F920FB60F9211242F933F9317
:103560008F939F93AF93BF9380919002909191021C
:10357000A0919202B091930230918F0223E0230F29
:103580002D3758F50196A11DB11D20938F02809310
:10359000900290939102A0939202B0939302809133
:1035A000940290919502A0919602B0919702019693
:1035B000A11DB11D8093940290939502A093960251
:1035C000B0939702BF91AF919F918F913F912F91AF
:1035D0000F900FBE0F901F90189526E8230F0296AC
:1035E000A11DB11DD2CF1F920F920FB60F921124C1
:1035F0002F933F934F935F936F937F938F939F93FB
:10360000AF93BF93EF93FF938091B900887F80368B
:1036100009F44AC0F0F5883209F4A7C018F58031E2
:1036200009F49BC0B8F4882309F4F9C0883009F480
:1036300094C0FF91EF91BF91AF919F918F917F9136
:103640006F915F914F913F912F910F900FBE0F900F
:103650001F901895883109F488C0803251F7809303
:10366000680214C0803409F49DC040F48033B9F37B
:103670008833F9F68093680285ECB0C0803509F490
:1036800085C0883509F496C0883499F60E94D01711
:10369000D0CF883909F48CC038F5883729F050F438
:1036A000883611F0803729F683E080936902109202
:1036B000670257C0883809F47BC0803919F0803818
:1036C00009F0B7CF80916702803208F071C0E091B5
:1036D000670281E08E0F809367028091BB00F0E06B
:1036E000E95BFD4F80833DC0803B39F0E0F4803AD8
:1036F00009F479C0883A09F09CCF84E0809369028C
:103700001092460210924502E091AD02F091AE0295
:1037100009958091450281110FC081E08093450297
:103720001092250209C0803C09F4A6CF883C09F418
:10373000A3CF883B09F07DCFE091460281E08E0F58
:1037400080934602F0E0EB5DFD4F80818093BB00EB
:10375000909146028091450229C080918E0280930B
:10376000BB0085EC8093BC0064CF90918D0280916A
:103770008C02981758F5E0918D0281E08E0F8093AE
:103780008D02F0E0E459FD4F8081E9CFE0918D0298
:1037900081E08E0F80938D028091BB00F0E0E459B0
:1037A000FD4F808390918D0280918C029817C8F212
:1037B00085E8D8CFE0918D0281E08E0F80938D0255
:1037C0008091BB00F0E0E459FD4F808380916B0253
:1037D00081115CCF81E080936A0284EA8093BC000F
:1037E0001092690226CF85EC8093BC00109269028A
:1037F00080916702803230F4E0916702F0E0E95B8B
:10380000FD4F10826091670270E0E091AB02F09191
:10381000AC0287E492E00995109267020ACF1092F9
:10382000680234CFEF92FF920F931F93CF93DF93F1
:10383000F82E192FE62E042F81E0860F880F0E94A4
:103840004B0683E00E944B06CF2DD12FEC0EFD2EB0
:10385000F11CCE15DF05B9F007FF13C0FE018491FE
:103860000E944B06182F80E00E944B068123219670
:103870008111EFCFDF91CF911F910F91FF90EF90CA
:1038800008958881EDCF81E0F5CF1092C4021092A7
:10389000C30288EE93E0A0E0B0E08093C50290936D
:1038A000C602A093C702B093C8022EE331E0309362
:1038B000C2022093C1022FEF3FEF3093CE0220933C
:1038C000CD0210923C0310923B0380933D039093F2
:1038D0003E03A0933F03B093400380E591E09093B3
:1038E0003A038093390382E691E09093200380931A
:1038F0001F0380911703811113C0109212031092BD
:1039000011038CE69BE0909314038093130388E1EA
:1039100090E0909316038093150381E08093170342
:103920000E94BF16FC01A385B485109709F003C15E
:1039300081E193E09487838785859685209115039F
:1039400030911603820F931F9687858788E691E052
:103950009093300380932F0380912703811113C02C
:10396000109222031092210384E89BE09093240399
:103970008093230389E190E09093260380932503AD
:1039800081E0809327030E94BF16FC01A385B485C4
:10399000109709F0DBC081E293E0948783878585E7
:1039A00096852091250330912603820F931F9687D9
:1039B00085871092870310928B0310928A031092CE
:1039C0008C038AE991E09093860380938503E1EA72
:1039D000F3E01082148213821582369683E0ED3D67
:1039E000F807B9F789E191E09093E8038093E70342
:1039F00085E191E09093EA038093E90383E080936B
:103A0000EB0394E09093EC032CE131E03093E60378
:103A10002093E5032AE030E03093EE032093ED039A
:103A200024EF31E03093F0032093EF031092F3037F
:103A30001092F2031092E1031092E2031092E3035A
:103A40001092E4031092F10310924803109247037E
:103A500040E850E050934A034093490320E430E0AB
:103A600030934C0320934B0350934E0340934D03EC
:103A70003093500320934F0310925B031092520334
:103A800010925103109254031092530381E08093DB
:103A90005A03809359032FEF3FEF3093580320933D
:103AA0005703309356032093550380935C03109281
:103AB0005D0310925F0310925E032EE631E03093B7
:103AC000460320934503109261031092600329E39B
:103AD00033E03093630320936203109265031092E6
:103AE00064038FEF8093690380936A0380936B0371
:103AF00080936C0390936D0380E89AE1A6E0B0E0B8
:103B000080937A0390937B03A0937C03B0937D030F
:103B100080EA96E8A1E0B0E080937E0390937F0373
:103B2000A0938003B093810380E580938303109278
:103B300084030895DC018D919C9111970097D1F732
:103B400081E193E08D939C93F7CEDC018D919C9164
:103B500011970097D1F781E293E08D939C931FCF4B
:103B6000CF93DF9300D0CDB7DEB7789484B5826071
:103B700084BD84B5816084BD85B5826085BD85B511
:103B8000816085BD80916E00816080936E0010928F
:103B9000810080918100826080938100809181000A
:103BA000816080938100809180008160809380009B
:103BB000809191008260809391008091910081605A
:103BC000809391008091900081608093900080911B
:103BD000C10084608093C1008091C10082608093A5
:103BE000C1008091C10081608093C1008091C300B9
:103BF00081608093C3008091C00082608093C00088
:103C00008091C20081608093C20080917A008460BC
:103C100080937A0080917A00826080937A0080910C
:103C20007A00816080937A0080917A008068809326
:103C30007A001092BC021092B1021092B2020E945D
:103C4000F2088091E1008E7E8093E1008DE0809308
:103C5000E200559A209A5D98289862E087E00E94D9
:103C60005B0862E089E00E945B0862E088E00E94F5
:103C70005B0861E085E00E945B0861E086E00E94ED
:103C80005B088FEF9FEF9093CE028093CD02E1E32C
:103C9000F3E088E0DF011D928A95E9F748E050E003
:103CA000BF018FE293E00E944217198241E050E089
:103CB000BE016F5F7F4F8FE193E00E94311761E09B
:103CC00085E00E94290861E086E00E94290887E0DB
:103CD0000E94FD079093B8028093B702809164031D
:103CE00090916503892B11F10E948B1720914B0352
:103CF00030914C038091490390914A032132310560
:103D00000CF010C1B9016052710977FF02C06F5FFA
:103D10007F4F759567958357910997FD019600E24E
:103D200010E023E730E047EC56E00FC120914B0351
:103D300030914C03C901079697FD0796B3E095951E
:103D40008795BA95E1F72091490330914A03FC0128
:103D5000E29FC001E39F900DF29F900D11240E94FD
:103D60009A249093650380936403892B09F0BCCF58
:103D70000E948B1781E090E0909358038093570343
:103D8000909356038093550312E0109359031093B8
:103D90005A038DE090E0909352038093510385E0A5
:103DA00090E0909354038093530363EA71E085E4B9
:103DB00093E00E94BC171093590310935A0389E1B2
:103DC00090E0909352038093510388E290E09093A7
:103DD0005403809353036DEA71E085E493E00E94FD
:103DE000BC178091620390916303892B09F490C200
:103DF00020917A0330917B0340917C0350917D03A5
:103E000060E074E284EF90E00E9472242051310956
:103E10004109510956954795379527952093B80044
:103E200065E087E69BE00E9456146091490361506B
:103E300085E493E00E940B1520914B0330914C03D5
:103E4000C901079697FD0796F3E095958795FA9532
:103E5000E1F72091490330914A03829F7001839FCB
:103E6000F00C929FF00C11240091640310916503F3
:103E70008091620390916303E00EF11E009709F4B4
:103E80000AC32091660331E03093C0022093BF0241
:103E90001092BE021092BD02DC01ED91FC910190E6
:103EA000F081E02D60E40995CC24C394D12CBB248F
:103EB000B3948091620390916303E016F10609F4D4
:103EC0003EC2B0E2CB16D104D8F00E946F138091AD
:103ED00062039091630320916603B092C002209325
:103EE000BF021092BE021092BD02DC01ED91FC9166
:103EF0000190F081E02D60E40995CC24C394D12C8D
:103F00008091620390916303F80161918F01DC015C
:103F1000ED91FC910190F081E02D0995BFEFCB1A56
:103F2000DB0AC7CFB9016054710977FF02C06F5F28
:103F30007F4F759567958255910997FD019600E42D
:103F400010E022E530E047EA58E0959587950E9419
:103F5000751182E0809367038091620390916303FF
:103F6000892B09F4DFC08CE3809366031092B002C2
:103F70001092AF021092BE021092BD020E94AB12CC
:103F800089E496E09093AE028093AD028AE496E0D5
:103F90009093AC028093AB0280916D0387FD1EC0AD
:103FA00061E00E945B0861E080916D030E94290836
:103FB00061E070E080E090E00E94C00860E08091E5
:103FC0006D030E9429086AE070E080E090E00E94A2
:103FD000C00861E080916D030E942908809162030E
:103FE00090916303892B09F45CC120917A0330918D
:103FF0007B0340917C0350917D0360E074E284EF89
:1040000090E00E94722420513109410951095695CE
:104010004795379527952093B80064E087E796E0A9
:104020000E94561460914B03615085E493E00E9416
:104030000B1564E083E796E00E94561480916703B5
:1040400060E1813009F064E185E493E00E940B15A2
:1040500064E08FE696E00E9456148FE88093820316
:104060008091490390914A038038910509F032C14B
:1040700080914B0390914C038034910509F03AC133
:1040800080916703813009F023C18FE98093820317
:1040900012E16AED85E493E00E940B15612F85E43F
:1040A00093E00E940B1561E885E493E00E940B15F4
:1040B0006091820385E493E00E940B1569ED85E42D
:1040C00093E00E940B158091670362E2813009F052
:1040D00061EF85E493E00E940B1566E089E696E0C7
:1040E0000E9456148091620390916303892B09F416
:1040F00005C120917E0330917F0340918003509150
:10410000810360E074E284EF90E00E947224205109
:1041100031094109510956954795379527952093BF
:10412000B80026CE61E080916B030E945B0861E0DD
:1041300080916C030E945B0880916B03082E000C39
:10414000990BFC01E855F94FE491F0E0EE0FFF1FE9
:10415000E656F94F259134913093730320937203FF
:10416000FC01E558F94FE491E093780380916C03EA
:10417000082E000C990BFC01E855F94FE491F0E092
:10418000EE0FFF1FE656F94FA591B491B09375035A
:10419000A0937403FC01E558F94FE491E09379038F
:1041A0008C91E82BEC938091600390916103892BB3
:1041B00009F434C01FB7F8948091AA02811127C076
:1041C000E9EBF6E08491ECE8F6E09491E82FF0E07A
:1041D000EE0FFF1FE55AF94FA591B491EC91E92339
:1041E00021F461E081E10E94290861E081E10E94FF
:1041F0005B088CB580618CBD8CB580648CBD61E042
:104200008FE00E945B0861E080E10E945B08809182
:10421000AA028F5F8093AA021FBFBECE61E0809189
:1042200069030E945B0861E080916A030E945B0859
:1042300080916903082E000C990BFC01E855F94F99
:10424000E491F0E0EE0FFF1FE656F94F259134910F
:1042500030936F0320936E03FC01E558F94FE4910E
:10426000E093760380916A03082E000C990BFC0101
:10427000E855F94FE491F0E0EE0FFF1FE656F94FD5
:10428000A591B491B0937103A0937003FC01E5581C
:10429000F94FE491E09377038C91E095E823EC9358
:1042A0007BCE8091600390916103892B31F08091E6
:1042B0008303909184030E948B0CE0917403F0912E
:1042C0007503908180917903809589238083A5CEA1
:1042D0008FECDCCE8036910569F480914B03909190
:1042E0004C03409739F480916703813029F480E1D1
:1042F0008093820312E0CDCE8FEAFACFE09174036F
:10430000F0917503808190917903892B808330CD62
:104310008091600390916103892B31F08091830338
:10432000909184030E948B0CE0917403F0917503CB
:1043300090818091790380958923808371CD0E943B
:104340006F138091620390916303892B09F4E7C096
:1043500020917E0330917F0340918003509181032F
:1043600060E074E284EF90E00E94722420513109F1
:104370004109510956954795379527952093B800DF
:10438000412C512C3201439430E0A32E30E0B32E67
:1043900087E00E94FD078C019093BA028093B902D6
:1043A0008091B7029091B8020817190799F001306F
:1043B000110581F489E00E94FD0720911401019705
:1043C00009F4B7C089EE90E0211102C08FE690E0B9
:1043D0000E9453171093B8020093B70288E00E941E
:1043E000FD07892B39F50E94C5090091B302109190
:1043F000B4022091B5023091B602601B710B820BA2
:10440000930B633371058105910550F065EB71E005
:1044100081EC92E00E94BC1782EE90E00E9453175C
:104420000E94C5096093B3027093B4028093B502F1
:104430009093B602F1E0F093F1030E94C509009158
:10444000E1031091E2032091E3033091E403AB0117
:10445000BC01401B510B620B730B8091ED039091DB
:10446000EE03B0E0A0E084179507A607B70708F0B1
:104470006FC110E08091EB03181708F061C0E09164
:10448000E703F091E803E10FF11D62E080810E94F3
:104490005B081F5FEFCFE0917203F091730380819F
:1044A00090917803892B80830E151F0509F449CF5D
:1044B000F80181918F012091600330916103232BDA
:1044C00019F00E94840CF0CF28E030E040E8E09141
:1044D0006E03F0916F0390917603582F5423D9F017
:1044E0005081952B9083E0917003F091710390813E
:1044F00050917703952B9083E0917003F0917103B5
:104500005081909177039095952390834695215003
:104510003109E9F6C9CF508190959523E3CFE09119
:104520007403F0917503808190917903892B8083C6
:1045300027CF8AEE90E021114BCF80E790E048CF63
:10454000312C8091EC03381608F061C0E32CF12C7B
:10455000E091E903F091EA03EE0DFF1D61E0808137
:104560000E945B08E091E903F091EA03EE0DFF1D64
:1045700060E080810E942908D301C201032C04C09D
:10458000880F991FAA1FBB1F0A94D2F74C016C0118
:10459000C094D094212C8091EB03281608F5022DAD
:1045A00010E0E091E703F091E803E00FF11F808154
:1045B0000E94FD070C5F1F4F000F111FF801EB5702
:1045C000FC4F892B41F4808191818829992991831D
:1045D00080832394E0CF808191818C219D21F7CF2E
:1045E000E091E903F091EA03EE0DFF1D61E08081A7
:1045F0000E9429088091E9039091EA03E80EF91ED0
:1046000060E0D7018C910E945B0833949ACF05E853
:1046100013E07801F701878D90A1892B31F4148E76
:104620004FEF5FEF568F458F11A256E0E50EF11C5C
:1046300081EC93E08E159F0569F7D12C8091EB03F7
:10464000D81608F053C0C12C8D2C912C880C991CC5
:10465000D401A357BC4F4D012091EC03C21608F0C2
:1046600043C0F401608171810C2C02C0769567957E
:104670000A94E2F7D29E900111242C0D311DE5E839
:10468000F3E080E0458D568D2417350709F419C1F4
:104690008F5F36968A30B1F760FF24C0E5E8F3E01B
:1046A00090E080E0448D411118C0E091E503F09165
:1046B000E603E20FF31F408156E0589FF001599F37
:1046C000F00D1124EB57FC4F448F368F258F10A22D
:1046D000178E61E00E94D10905C0019636968A3096
:1046E000910501F7C394B8CFD394A8CFD12CD801AA
:1046F00091968C918111D82E0A5F1F4F0E151F05C0
:10470000B1F70E94C5096093E1037093E2038093BF
:10471000E3039093E403DD20D9F08091A60388237E
:10472000B9F08091A4039091A503019789F41091A9
:10473000A103111110C061E070E080E090E00E94E0
:10474000C008A114B10409F423CE0E9400001CCEBD
:104750001092F103F0CF612F81EC92E00E942F07BD
:1047600060EA71E081EC92E00E94AD17163309F423
:1047700070C084F5133309F461C0F4F4113309F403
:1047800047C01233C1F68091E0008D7F8093E00036
:104790008091E00081FD47C08091B20280FF43C05C
:1047A0008091B10281FF3FC00E94F2088091E00039
:1047B00082608093E00037C0143309F444C015339D
:1047C00009F0B9CF80911301882309F43FC086EB2B
:1047D00090E036C0193309F453C074F4173309F468
:1047E00042C0183309F0A7CF80911301882309F440
:1047F00044C085EB90E024C0123609F444C013365F
:1048000009F451C0113609F096CF84E991E018C03F
:10481000B2E8BA8341E050E0BE016E5F7F4F8FE1A6
:1048200093E00E943117198241E050E0BE016F5FB2
:104830007F4F8FE193E00E9431177DCF84EB90E0B2
:104840000E94531778CF83EB90E0FACF84E292E096
:10485000F7CF80911301882319F08DEC90E0F0CF11
:1048600087E292E0EDCF80911301882319F087EB66
:1048700090E0E6CF83E292E0E3CF85E292E0E0CF02
:1048800082E991E0DDCF80911401882339F0109204
:10489000140160E085E00E9429084DCFE1E0E0933B
:1048A000140161E0F7CF80911301882329F0109261
:1048B000130160E086E0EFCFF1E0F093130161E0D7
:1048C000F9CF617007CF8EE691E090934603809315
:1048D00045038091640390916503009711F00C9457
:1048E00036250895A1E21A2EAA1BBB1BFD010DC09F
:1048F000AA1FBB1FEE1FFF1FA217B307E407F50790
:1049000020F0A21BB30BE40BF50B661F771F881F6B
:10491000991F1A9469F760957095809590959B0101
:10492000AC01BD01CF010895EE0FFF1F0590F4917A
:10493000E02D09940F931F93CF93DF93823091055D
:1049400010F482E090E0E091F603F091F70330E09C
:1049500020E0B0E0A0E0309799F42115310509F48A
:104960004AC0281B390B24303105D8F58A819B8138
:104970006115710589F1FB0193838283FE0111C0EA
:10498000408151810281138148175907E0F048178F
:10499000590799F4109761F012960C931297139699
:1049A0001C933296CF01DF91CF911F910F91089503
:1049B0000093F6031093F703F4CF2115310551F05E
:1049C0004217530738F0A901DB019A01BD01DF014D
:1049D000F801C1CFEF01F9CF9093F7038093F6036D
:1049E000CDCFFE01E20FF31F819391932250310945
:1049F00039832883D7CF2091F4033091F503232BFB
:104A000041F420912A0130912B013093F50320933A
:104A1000F40320912801309129012115310541F439
:104A20002DB73EB740912C0150912D01241B350B21
:104A3000E091F403F091F503E217F307A0F42E1BC5
:104A40003F0B2817390778F0AC014E5F5F4F2417F2
:104A5000350748F04E0F5F1F5093F5034093F40362
:104A6000819391939FCFF0E0E0E09CCFCF93DF93D1
:104A70000097E9F0FC01329713821282A091F603AD
:104A8000B091F703ED0130E020E01097A1F4208110
:104A90003181820F931F2091F4033091F503281781
:104AA000390709F061C0F093F503E093F403DF9157
:104AB000CF910895EA01CE17DF07E8F54A815B81BF
:104AC0009E0141155105B1F7E901FB83EA83499144
:104AD0005991C40FD51FEC17FD0761F480819181B6
:104AE0000296840F951FE9019983888382819381BF
:104AF0009B838A83F0E0E0E012968D919C9113975E
:104B00000097B9F52D913C911197CD010296820F36
:104B1000931F2091F4033091F5032817390739F6D4
:104B2000309751F51092F7031092F603B093F50306
:104B3000A093F403BCCFD383C28340815181840FFF
:104B4000951FC817D90761F44E5F5F4F888199811F
:104B5000480F591F518340838A819B8193838283AD
:104B60002115310509F0B0CFF093F703E093F60378
:104B70009ECFFD01DC01C0CF13821282D7CF81E02E
:104B800090E0F8940C94CB25DC0101C06D9341506A
:104B90005040E0F7089515E0C0EDD5E004C0FE01F7
:104BA0000E9494242196C13DD107C9F7F894FFCF04
:104BB00000C18081000000FFFFFFFF00E100000056
:104BC00000000001010A100E0F14131231323334A9
:104BD00035363738396162630000F8038000000021
:104BE0000000C615741639161E16000000002F07A7
:104BF000AF095007450797075507730700000000E6
:104C000040131313C315FB050C13F912EA1200002D
:104C10000000311700000000421700000000C90E1C
:104C2000BD06C3158312D40BFB056E11461162112C
:104C30005611D611FB058F0C6D15440B8D0B8F1083
:104C40007210FA0F9B0F0000000097085708260803
:104C50000D0A00544B6579626F617264002D7275A4
:104C60007869612D00427574746F6E20707265737F
:064C7000736564210000E1
:00000001FF
